{
  "address": "0x7878dBCFd713b76b1De6F0812fEC9c6c2b8d55Bc",
  "abi": [
    {
      "inputs": [
        {
          "internalType": "address",
          "name": "token_",
          "type": "address"
        },
        {
          "internalType": "uint8",
          "name": "tokenDecimals_",
          "type": "uint8"
        },
        {
          "internalType": "uint256",
          "name": "softCap_",
          "type": "uint256"
        },
        {
          "internalType": "uint256",
          "name": "minBuy_",
          "type": "uint256"
        },
        {
          "internalType": "uint256",
          "name": "maxPerWallet_",
          "type": "uint256"
        }
      ],
      "stateMutability": "nonpayable",
      "type": "constructor"
    },
    {
      "inputs": [],
      "name": "EnforcedPause",
      "type": "error"
    },
    {
      "inputs": [],
      "name": "ExpectedPause",
      "type": "error"
    },
    {
      "inputs": [],
      "name": "FailedCall",
      "type": "error"
    },
    {
      "inputs": [
        {
          "internalType": "uint256",
          "name": "balance",
          "type": "uint256"
        },
        {
          "internalType": "uint256",
          "name": "needed",
          "type": "uint256"
        }
      ],
      "name": "InsufficientBalance",
      "type": "error"
    },
    {
      "inputs": [
        {
          "internalType": "address",
          "name": "owner",
          "type": "address"
        }
      ],
      "name": "OwnableInvalidOwner",
      "type": "error"
    },
    {
      "inputs": [
        {
          "internalType": "address",
          "name": "account",
          "type": "address"
        }
      ],
      "name": "OwnableUnauthorizedAccount",
      "type": "error"
    },
    {
      "inputs": [],
      "name": "ReentrancyGuardReentrantCall",
      "type": "error"
    },
    {
      "anonymous": false,
      "inputs": [
        {
          "indexed": true,
          "internalType": "address",
          "name": "buyer",
          "type": "address"
        },
        {
          "indexed": false,
          "internalType": "uint256",
          "name": "tokensAmount",
          "type": "uint256"
        }
      ],
      "name": "Claimed",
      "type": "event"
    },
    {
      "anonymous": false,
      "inputs": [
        {
          "indexed": true,
          "internalType": "address",
          "name": "previousOwner",
          "type": "address"
        },
        {
          "indexed": true,
          "internalType": "address",
          "name": "newOwner",
          "type": "address"
        }
      ],
      "name": "OwnershipTransferred",
      "type": "event"
    },
    {
      "anonymous": false,
      "inputs": [
        {
          "indexed": false,
          "internalType": "address",
          "name": "account",
          "type": "address"
        }
      ],
      "name": "Paused",
      "type": "event"
    },
    {
      "anonymous": false,
      "inputs": [
        {
          "indexed": true,
          "internalType": "address",
          "name": "dest",
          "type": "address"
        },
        {
          "indexed": false,
          "internalType": "uint256",
          "name": "amount",
          "type": "uint256"
        }
      ],
      "name": "PaymentQueued",
      "type": "event"
    },
    {
      "anonymous": false,
      "inputs": [
        {
          "indexed": true,
          "internalType": "address",
          "name": "payee",
          "type": "address"
        },
        {
          "indexed": false,
          "internalType": "uint256",
          "name": "amount",
          "type": "uint256"
        }
      ],
      "name": "PaymentsWithdrawn",
      "type": "event"
    },
    {
      "anonymous": false,
      "inputs": [
        {
          "indexed": true,
          "internalType": "uint256",
          "name": "phaseId",
          "type": "uint256"
        },
        {
          "indexed": false,
          "internalType": "uint256",
          "name": "priceWei",
          "type": "uint256"
        },
        {
          "indexed": false,
          "internalType": "uint256",
          "name": "supply",
          "type": "uint256"
        },
        {
          "indexed": false,
          "internalType": "uint256",
          "name": "start",
          "type": "uint256"
        },
        {
          "indexed": false,
          "internalType": "uint256",
          "name": "end",
          "type": "uint256"
        }
      ],
      "name": "PhaseAdded",
      "type": "event"
    },
    {
      "anonymous": false,
      "inputs": [
        {
          "indexed": true,
          "internalType": "address",
          "name": "buyer",
          "type": "address"
        },
        {
          "indexed": true,
          "internalType": "uint256",
          "name": "phaseId",
          "type": "uint256"
        },
        {
          "indexed": false,
          "internalType": "uint256",
          "name": "ethAmount",
          "type": "uint256"
        },
        {
          "indexed": false,
          "internalType": "uint256",
          "name": "tokensAmount",
          "type": "uint256"
        }
      ],
      "name": "Purchased",
      "type": "event"
    },
    {
      "anonymous": false,
      "inputs": [
        {
          "indexed": true,
          "internalType": "address",
          "name": "buyer",
          "type": "address"
        },
        {
          "indexed": false,
          "internalType": "uint256",
          "name": "ethAmount",
          "type": "uint256"
        }
      ],
      "name": "RefundRequested",
      "type": "event"
    },
    {
      "anonymous": false,
      "inputs": [
        {
          "indexed": false,
          "internalType": "bool",
          "name": "softCapReached",
          "type": "bool"
        }
      ],
      "name": "SaleEnded",
      "type": "event"
    },
    {
      "anonymous": false,
      "inputs": [
        {
          "indexed": false,
          "internalType": "uint256",
          "name": "totalRaised",
          "type": "uint256"
        }
      ],
      "name": "SoftCapReached",
      "type": "event"
    },
    {
      "anonymous": false,
      "inputs": [
        {
          "indexed": false,
          "internalType": "address",
          "name": "account",
          "type": "address"
        }
      ],
      "name": "Unpaused",
      "type": "event"
    },
    {
      "anonymous": false,
      "inputs": [
        {
          "indexed": true,
          "internalType": "address",
          "name": "beneficiary",
          "type": "address"
        },
        {
          "indexed": false,
          "internalType": "uint256",
          "name": "amount",
          "type": "uint256"
        }
      ],
      "name": "Withdrawn",
      "type": "event"
    },
    {
      "inputs": [
        {
          "internalType": "uint256",
          "name": "priceWei",
          "type": "uint256"
        },
        {
          "internalType": "uint256",
          "name": "supply",
          "type": "uint256"
        },
        {
          "internalType": "uint256",
          "name": "start",
          "type": "uint256"
        },
        {
          "internalType": "uint256",
          "name": "end",
          "type": "uint256"
        }
      ],
      "name": "addPhase",
      "outputs": [],
      "stateMutability": "nonpayable",
      "type": "function"
    },
    {
      "inputs": [],
      "name": "buy",
      "outputs": [],
      "stateMutability": "payable",
      "type": "function"
    },
    {
      "inputs": [
        {
          "internalType": "uint256",
          "name": "ethAmount",
          "type": "uint256"
        }
      ],
      "name": "calculateTokens",
      "outputs": [
        {
          "internalType": "uint256",
          "name": "tokens",
          "type": "uint256"
        },
        {
          "internalType": "uint256",
          "name": "cost",
          "type": "uint256"
        },
        {
          "internalType": "uint256",
          "name": "excess",
          "type": "uint256"
        }
      ],
      "stateMutability": "view",
      "type": "function"
    },
    {
      "inputs": [],
      "name": "claim",
      "outputs": [],
      "stateMutability": "nonpayable",
      "type": "function"
    },
    {
      "inputs": [
        {
          "internalType": "address",
          "name": "",
          "type": "address"
        }
      ],
      "name": "contributionsWei",
      "outputs": [
        {
          "internalType": "uint256",
          "name": "",
          "type": "uint256"
        }
      ],
      "stateMutability": "view",
      "type": "function"
    },
    {
      "inputs": [],
      "name": "endSale",
      "outputs": [],
      "stateMutability": "nonpayable",
      "type": "function"
    },
    {
      "inputs": [],
      "name": "escrowBalance",
      "outputs": [
        {
          "internalType": "uint256",
          "name": "",
          "type": "uint256"
        }
      ],
      "stateMutability": "view",
      "type": "function"
    },
    {
      "inputs": [],
      "name": "getCurrentPhase",
      "outputs": [
        {
          "internalType": "uint256",
          "name": "",
          "type": "uint256"
        }
      ],
      "stateMutability": "view",
      "type": "function"
    },
    {
      "inputs": [
        {
          "internalType": "uint256",
          "name": "phaseId",
          "type": "uint256"
        }
      ],
      "name": "getPhase",
      "outputs": [
        {
          "components": [
            {
              "internalType": "uint256",
              "name": "priceWei",
              "type": "uint256"
            },
            {
              "internalType": "uint256",
              "name": "supply",
              "type": "uint256"
            },
            {
              "internalType": "uint256",
              "name": "sold",
              "type": "uint256"
            },
            {
              "internalType": "uint256",
              "name": "start",
              "type": "uint256"
            },
            {
              "internalType": "uint256",
              "name": "end",
              "type": "uint256"
            }
          ],
          "internalType": "struct DynamicPresale.Phase",
          "name": "",
          "type": "tuple"
        }
      ],
      "stateMutability": "view",
      "type": "function"
    },
    {
      "inputs": [],
      "name": "hasActivePhase",
      "outputs": [
        {
          "internalType": "bool",
          "name": "",
          "type": "bool"
        }
      ],
      "stateMutability": "view",
      "type": "function"
    },
    {
      "inputs": [],
      "name": "maxPerWallet",
      "outputs": [
        {
          "internalType": "uint256",
          "name": "",
          "type": "uint256"
        }
      ],
      "stateMutability": "view",
      "type": "function"
    },
    {
      "inputs": [],
      "name": "minBuy",
      "outputs": [
        {
          "internalType": "uint256",
          "name": "",
          "type": "uint256"
        }
      ],
      "stateMutability": "view",
      "type": "function"
    },
    {
      "inputs": [],
      "name": "owner",
      "outputs": [
        {
          "internalType": "address",
          "name": "",
          "type": "address"
        }
      ],
      "stateMutability": "view",
      "type": "function"
    },
    {
      "inputs": [],
      "name": "pause",
      "outputs": [],
      "stateMutability": "nonpayable",
      "type": "function"
    },
    {
      "inputs": [
        {
          "internalType": "uint256",
          "name": "phaseId",
          "type": "uint256"
        }
      ],
      "name": "pausePhase",
      "outputs": [],
      "stateMutability": "nonpayable",
      "type": "function"
    },
    {
      "inputs": [],
      "name": "paused",
      "outputs": [
        {
          "internalType": "bool",
          "name": "",
          "type": "bool"
        }
      ],
      "stateMutability": "view",
      "type": "function"
    },
    {
      "inputs": [
        {
          "internalType": "address",
          "name": "account",
          "type": "address"
        }
      ],
      "name": "paymentsOf",
      "outputs": [
        {
          "internalType": "uint256",
          "name": "",
          "type": "uint256"
        }
      ],
      "stateMutability": "view",
      "type": "function"
    },
    {
      "inputs": [
        {
          "internalType": "address",
          "name": "",
          "type": "address"
        }
      ],
      "name": "pendingTokens",
      "outputs": [
        {
          "internalType": "uint256",
          "name": "",
          "type": "uint256"
        }
      ],
      "stateMutability": "view",
      "type": "function"
    },
    {
      "inputs": [
        {
          "internalType": "uint256",
          "name": "",
          "type": "uint256"
        }
      ],
      "name": "phases",
      "outputs": [
        {
          "internalType": "uint256",
          "name": "priceWei",
          "type": "uint256"
        },
        {
          "internalType": "uint256",
          "name": "supply",
          "type": "uint256"
        },
        {
          "internalType": "uint256",
          "name": "sold",
          "type": "uint256"
        },
        {
          "internalType": "uint256",
          "name": "start",
          "type": "uint256"
        },
        {
          "internalType": "uint256",
          "name": "end",
          "type": "uint256"
        }
      ],
      "stateMutability": "view",
      "type": "function"
    },
    {
      "inputs": [],
      "name": "remainingTokensInCurrentPhase",
      "outputs": [
        {
          "internalType": "uint256",
          "name": "",
          "type": "uint256"
        }
      ],
      "stateMutability": "view",
      "type": "function"
    },
    {
      "inputs": [],
      "name": "renounceOwnership",
      "outputs": [],
      "stateMutability": "nonpayable",
      "type": "function"
    },
    {
      "inputs": [],
      "name": "requestRefund",
      "outputs": [],
      "stateMutability": "nonpayable",
      "type": "function"
    },
    {
      "inputs": [],
      "name": "saleEnded",
      "outputs": [
        {
          "internalType": "bool",
          "name": "",
          "type": "bool"
        }
      ],
      "stateMutability": "view",
      "type": "function"
    },
    {
      "inputs": [
        {
          "internalType": "uint256",
          "name": "newMaxPerWallet",
          "type": "uint256"
        }
      ],
      "name": "setMaxPerWallet",
      "outputs": [],
      "stateMutability": "nonpayable",
      "type": "function"
    },
    {
      "inputs": [
        {
          "internalType": "uint256",
          "name": "newMinBuy",
          "type": "uint256"
        }
      ],
      "name": "setMinBuy",
      "outputs": [],
      "stateMutability": "nonpayable",
      "type": "function"
    },
    {
      "inputs": [
        {
          "internalType": "uint256",
          "name": "newSoftCap",
          "type": "uint256"
        }
      ],
      "name": "setSoftCap",
      "outputs": [],
      "stateMutability": "nonpayable",
      "type": "function"
    },
    {
      "inputs": [],
      "name": "softCap",
      "outputs": [
        {
          "internalType": "uint256",
          "name": "",
          "type": "uint256"
        }
      ],
      "stateMutability": "view",
      "type": "function"
    },
    {
      "inputs": [],
      "name": "softCapReached",
      "outputs": [
        {
          "internalType": "bool",
          "name": "",
          "type": "bool"
        }
      ],
      "stateMutability": "view",
      "type": "function"
    },
    {
      "inputs": [],
      "name": "token",
      "outputs": [
        {
          "internalType": "contract IMyToken",
          "name": "",
          "type": "address"
        }
      ],
      "stateMutability": "view",
      "type": "function"
    },
    {
      "inputs": [],
      "name": "tokenDecimals",
      "outputs": [
        {
          "internalType": "uint8",
          "name": "",
          "type": "uint8"
        }
      ],
      "stateMutability": "view",
      "type": "function"
    },
    {
      "inputs": [],
      "name": "tokenUnit",
      "outputs": [
        {
          "internalType": "uint256",
          "name": "",
          "type": "uint256"
        }
      ],
      "stateMutability": "view",
      "type": "function"
    },
    {
      "inputs": [],
      "name": "totalBuyers",
      "outputs": [
        {
          "internalType": "uint256",
          "name": "",
          "type": "uint256"
        }
      ],
      "stateMutability": "view",
      "type": "function"
    },
    {
      "inputs": [],
      "name": "totalEscrow",
      "outputs": [
        {
          "internalType": "uint256",
          "name": "",
          "type": "uint256"
        }
      ],
      "stateMutability": "view",
      "type": "function"
    },
    {
      "inputs": [],
      "name": "totalPhases",
      "outputs": [
        {
          "internalType": "uint256",
          "name": "",
          "type": "uint256"
        }
      ],
      "stateMutability": "view",
      "type": "function"
    },
    {
      "inputs": [],
      "name": "totalRaised",
      "outputs": [
        {
          "internalType": "uint256",
          "name": "",
          "type": "uint256"
        }
      ],
      "stateMutability": "view",
      "type": "function"
    },
    {
      "inputs": [],
      "name": "totalTokensSold",
      "outputs": [
        {
          "internalType": "uint256",
          "name": "",
          "type": "uint256"
        }
      ],
      "stateMutability": "view",
      "type": "function"
    },
    {
      "inputs": [
        {
          "internalType": "address",
          "name": "newOwner",
          "type": "address"
        }
      ],
      "name": "transferOwnership",
      "outputs": [],
      "stateMutability": "nonpayable",
      "type": "function"
    },
    {
      "inputs": [],
      "name": "unpause",
      "outputs": [],
      "stateMutability": "nonpayable",
      "type": "function"
    },
    {
      "inputs": [
        {
          "internalType": "uint256",
          "name": "phaseId",
          "type": "uint256"
        },
        {
          "internalType": "uint256",
          "name": "newStart",
          "type": "uint256"
        },
        {
          "internalType": "uint256",
          "name": "newEnd",
          "type": "uint256"
        }
      ],
      "name": "updatePhase",
      "outputs": [],
      "stateMutability": "nonpayable",
      "type": "function"
    },
    {
      "inputs": [],
      "name": "withdrawPayments",
      "outputs": [],
      "stateMutability": "nonpayable",
      "type": "function"
    },
    {
      "inputs": [
        {
          "internalType": "address payable",
          "name": "beneficiary",
          "type": "address"
        }
      ],
      "name": "withdrawProceeds",
      "outputs": [],
      "stateMutability": "nonpayable",
      "type": "function"
    },
    {
      "stateMutability": "payable",
      "type": "receive"
    }
  ],
  "transactionHash": "0x9dad05d162c7089f2d8def1424bbbf049f1f63235c7bc163ab8795d5c5fc701e",
  "args": [
    "0x4B0056348e71722Ee0bF6466D278102aF2165F1E",
    18,
    "10000000000000000000",
    "10000000000000000",
    "20000000000000000000"
  ],
  "numDeployments": 2,
  "solcInputHash": "e2644a610f7043f58acf1cce2789e42d",
  "bytecode": "0x60e06040523480156200001157600080fd5b50604051620028053803806200280583398101604081905262000034916200027f565b600160005533806200006157604051631e4fbdf760e01b8152600060048201526024015b60405180910390fd5b6200006c8162000225565b506001600160a01b038516620000c55760405162461bcd60e51b815260206004820152601b60248201527f50726573616c653a20746f6b656e2061646472657373207a65726f0000000000604482015260640162000058565b60008311620001275760405162461bcd60e51b815260206004820152602760248201527f50726573616c653a20736f6674436170206d75737420626520677265617465726044820152660207468616e20360cc1b606482015260840162000058565b60008211620001885760405162461bcd60e51b815260206004820152602660248201527f50726573616c653a206d696e427579206d75737420626520677265617465722060448201526507468616e20360d41b606482015260840162000058565b81811015620001ea5760405162461bcd60e51b815260206004820152602760248201527f50726573616c653a206d617850657257616c6c6574206d757374206265203e3d604482015266206d696e42757960c81b606482015260840162000058565b6001600160a01b03851660805260ff841660a08190526200020d90600a620003fc565b60c05260029290925560035560045550620004119050565b600180546001600160a01b03838116610100818102610100600160a81b031985161790945560405193909204169182907f8be0079c531659141344cd1fd0a4f28419497f9722a3daafe3b4186f6b6457e090600090a35050565b600080600080600060a086880312156200029857600080fd5b85516001600160a01b0381168114620002b057600080fd5b602087015190955060ff81168114620002c857600080fd5b6040870151606088015160809098015196999198509695945092505050565b634e487b7160e01b600052601160045260246000fd5b600181815b808511156200033e578160001904821115620003225762000322620002e7565b808516156200033057918102915b93841c939080029062000302565b509250929050565b6000826200035757506001620003f6565b816200036657506000620003f6565b81600181146200037f57600281146200038a57620003aa565b6001915050620003f6565b60ff8411156200039e576200039e620002e7565b50506001821b620003f6565b5060208310610133831016604e8410600b8410161715620003cf575081810a620003f6565b620003db8383620002fd565b8060001904821115620003f257620003f2620002e7565b0290505b92915050565b60006200040a838362000346565b9392505050565b60805160a05160c0516123a162000464600039600081816106cf01528181610ea701528181610f0d0152818161120301526112aa015260006103990152600081816107850152610b2d01526123a16000f3fe60806040526004361061024a5760003560e01c8063860779e711610139578063d5cef133116100b6578063ece04c761161007a578063ece04c76146106f1578063f2fde38b14610711578063f3ccd8dc14610731578063f7daa1631461075e578063fc0c546a14610773578063fe669c26146107a757600080fd5b8063d5cef13314610653578063d5cf5c7214610668578063e11e1b0c14610688578063e268e4d31461069d578063e93c980d146106bd57600080fd5b8063a3d89844116100fd578063a3d89844146105d2578063a6f2ae3a146105e8578063b4a825a6146105f0578063c031a66f14610610578063c5c4744c1461063d57600080fd5b8063860779e7146105365780638da5cb5b14610556578063906a26e01461058d5780639b8906ae146105a3578063a3a40ea5146105bd57600080fd5b80634e71d92d116101c757806363b201171161018b57806363b20117146104a55780637107d7a6146104bb578063715018a6146104d157806371aa60fd146104e65780638456cb591461052157600080fd5b80634e71d92d1461040d57806350873450146104225780635c975abb146104585780636103d70b1461047057806362810c811461048557600080fd5b80633abd01361161020e5780633abd0136146103725780633b97e856146103875780633c5d1812146103cd5780633f4ba83a146103e2578063453c2310146103f757600080fd5b806316ef376b146102565780632b9edee9146102c15780632e37eef6146102f057806332dad5fc14610338578063380d831b1461035b57600080fd5b3661025157005b600080fd5b34801561026257600080fd5b506102766102713660046121b0565b6107c7565b6040516102b89190600060a082019050825182526020830151602083015260408301516040830152606083015160608301526080830151608083015292915050565b60405180910390f35b3480156102cd57600080fd5b506008546102e090610100900460ff1681565b60405190151581526020016102b8565b3480156102fc57600080fd5b5061031061030b3660046121b0565b610888565b604080519586526020860194909452928401919091526060830152608082015260a0016102b8565b34801561034457600080fd5b5061034d6108c9565b6040519081526020016102b8565b34801561036757600080fd5b50610370610943565b005b34801561037e57600080fd5b5061034d6109ec565b34801561039357600080fd5b506103bb7f000000000000000000000000000000000000000000000000000000000000000081565b60405160ff90911681526020016102b8565b3480156103d957600080fd5b5060055461034d565b3480156103ee57600080fd5b506103706109fd565b34801561040357600080fd5b5061034d60045481565b34801561041957600080fd5b50610370610a0f565b34801561042e57600080fd5b5061034d61043d3660046121de565b6001600160a01b03166000908152600d602052604090205490565b34801561046457600080fd5b5060015460ff166102e0565b34801561047c57600080fd5b50610370610bca565b34801561049157600080fd5b506103706104a03660046121de565b610c9e565b3480156104b157600080fd5b5061034d60075481565b3480156104c757600080fd5b5061034d60035481565b3480156104dd57600080fd5b50610370610e00565b3480156104f257600080fd5b506105066105013660046121b0565b610e12565b604080519384526020840192909252908201526060016102b8565b34801561052d57600080fd5b50610370610f5f565b34801561054257600080fd5b506103706105513660046121b0565b610f6f565b34801561056257600080fd5b5060015461010090046001600160a01b03165b6040516001600160a01b0390911681526020016102b8565b34801561059957600080fd5b5061034d60025481565b3480156105af57600080fd5b506008546102e09060ff1681565b3480156105c957600080fd5b5061034d611014565b3480156105de57600080fd5b5061034d600e5481565b6103706110da565b3480156105fc57600080fd5b5061037061060b3660046121b0565b6114ce565b34801561061c57600080fd5b5061034d61062b3660046121de565b600a6020526000908152604090205481565b34801561064957600080fd5b5061034d60065481565b34801561065f57600080fd5b50610370611523565b34801561067457600080fd5b506103706106833660046121b0565b611663565b34801561069457600080fd5b50600e5461034d565b3480156106a957600080fd5b506103706106b83660046121b0565b61170f565b3480156106c957600080fd5b5061034d7f000000000000000000000000000000000000000000000000000000000000000081565b3480156106fd57600080fd5b5061037061070c3660046121fb565b61176e565b34801561071d57600080fd5b5061037061072c3660046121de565b61194a565b34801561073d57600080fd5b5061034d61074c3660046121de565b60096020526000908152604090205481565b34801561076a57600080fd5b506102e0611985565b34801561077f57600080fd5b506105757f000000000000000000000000000000000000000000000000000000000000000081565b3480156107b357600080fd5b506103706107c2366004612227565b611997565b6107f96040518060a0016040528060008152602001600081526020016000815260200160008152602001600081525090565b60055482106108235760405162461bcd60e51b815260040161081a90612259565b60405180910390fd5b6005828154811061083657610836612290565b90600052602060002090600502016040518060a0016040529081600082015481526020016001820154815260200160028201548152602001600382015481526020016004820154815250509050919050565b6005818154811061089857600080fd5b6000918252602090912060059091020180546001820154600283015460038401546004909401549294509092909185565b60008060006108d6611d21565b91509150816108e85760009250505090565b600581815481106108fb576108fb612290565b9060005260206000209060050201600201546005828154811061092057610920612290565b90600052602060002090600502016001015461093c91906122bc565b9250505090565b61094b611dd7565b60085460ff16156109975760405162461bcd60e51b8152602060048201526016602482015275141c995cd85b194e88185b1c9958591e48195b99195960521b604482015260640161081a565b6008805460ff1916600117908190556040517f4ac7860777a00f36d6a1894a83e87800b79c8f7a42bac9e685ffe47a27c303f2916109e29161010090910460ff161515815260200190565b60405180910390a1565b60006109f8600b611e0a565b905090565b610a05611dd7565b610a0d611e1a565b565b610a17611e67565b610a1f611e91565b60085460ff16610a415760405162461bcd60e51b815260040161081a906122cf565b600854610100900460ff16610a985760405162461bcd60e51b815260206004820152601c60248201527f50726573616c653a20736f6674436170206e6f74207265616368656400000000604482015260640161081a565b336000908152600a602052604090205480610af55760405162461bcd60e51b815260206004820152601960248201527f50726573616c653a206e6f7468696e6720746f20636c61696d00000000000000604482015260640161081a565b336000818152600a602052604080822091909155516340c10f1960e01b81526004810191909152602481018290526001600160a01b037f000000000000000000000000000000000000000000000000000000000000000016906340c10f1990604401600060405180830381600087803b158015610b7157600080fd5b505af1158015610b85573d6000803e3d6000fd5b50506040518381523392507fd8138f8a3f377c5259ca548e70e4c2de94f129f5a11036a15b69513cba2b426a91506020015b60405180910390a250610a0d6001600055565b610bd2611e67565b336000908152600d602052604090205480610c265760405162461bcd60e51b815260206004820152601460248201527350726573616c653a206e6f207061796d656e747360601b604482015260640161081a565b336000908152600d6020526040812055600e548111610c5c5780600e6000828254610c5191906122bc565b90915550610c629050565b6000600e555b610c6c3382611eb5565b60405181815233907fd8102a2d73a808d6664a3116966c123291d07ec500edf12e27ee919d7b81bd3c90602001610bb7565b610ca6611dd7565b610cae611e67565b60085460ff16610cd05760405162461bcd60e51b815260040161081a906122cf565b600854610100900460ff16610d275760405162461bcd60e51b815260206004820152601c60248201527f50726573616c653a20736f6674436170206e6f74207265616368656400000000604482015260640161081a565b600e5447908111610d925760405162461bcd60e51b815260206004820152602f60248201527f50726573616c653a206e6f7468696e6720776974686472617761626c6520287260448201526e6573657276656420657363726f772960881b606482015260840161081a565b6000600e5482610da291906122bc565b9050610dae8382611eb5565b826001600160a01b03167f7084f5476618d8e60b11ef0d7d3f06914655adb8793e28ff7f018d4c76d505d582604051610de991815260200190565b60405180910390a25050610dfd6001600055565b50565b610e08611dd7565b610a0d6000611f4b565b6000806000806000610e22611d21565b9150915081610e3c57600080879450945094505050610f58565b600060058281548110610e5157610e51612290565b90600052602060002090600502016040518060a0016040529081600082015481526020016001820154815260200160028201548152602001600382015481526020016004820154815250509050600081600001517f000000000000000000000000000000000000000000000000000000000000000089610ed19190612306565b610edb919061231d565b9050600082604001518360200151610ef391906122bc565b90506000818311610f045782610f06565b815b84519091507f000000000000000000000000000000000000000000000000000000000000000090610f379083612306565b610f41919061231d565b9750610f4d888b6122bc565b909850955050505050505b9193909250565b610f67611dd7565b610a0d611fa5565b610f77611dd7565b60008111610fbd5760405162461bcd60e51b8152602060048201526013602482015272050726573616c653a206d696e427579203e203606c1b604482015260640161081a565b60045481111561100f5760405162461bcd60e51b815260206004820152601f60248201527f50726573616c653a206d696e427579203c3d206d617850657257616c6c657400604482015260640161081a565b600355565b6000805b600554811015611096576005818154811061103557611035612290565b906000526020600020906005020160030154421015801561107a57506005818154811061106457611064612290565b9060005260206000209060050201600401544211155b1561108457919050565b8061108e8161233f565b915050611018565b5060405162461bcd60e51b815260206004820152601860248201527750726573616c653a206e6f2061637469766520706861736560401b604482015260640161081a565b6110e2611e67565b6110ea611e91565b60085460ff16156111335760405162461bcd60e51b8152602060048201526013602482015272141c995cd85b194e881cd85b1948195b991959606a1b604482015260640161081a565b60035434101561117e5760405162461bcd60e51b815260206004820152601660248201527550726573616c653a2062656c6f77206d696e2062757960501b604482015260640161081a565b600080611189611d21565b91509150816111d55760405162461bcd60e51b815260206004820152601860248201527750726573616c653a206e6f2061637469766520706861736560401b604482015260640161081a565b6000600582815481106111ea576111ea612290565b60009182526020822060059091020180549092506112287f000000000000000000000000000000000000000000000000000000000000000034612306565b611232919061231d565b90506000811161127b5760405162461bcd60e51b815260206004820152601460248201527350726573616c653a207a65726f20746f6b656e7360601b604482015260640161081a565b60008260020154836001015461129191906122bc565b905060008183116112a257826112a4565b815b905060007f00000000000000000000000000000000000000000000000000000000000000008560000154836112d99190612306565b6112e3919061231d565b6004543360009081526009602052604090205491925090611305908390612358565b11156113535760405162461bcd60e51b815260206004820152601d60248201527f50726573616c653a2061626f7665206d6178207065722077616c6c6574000000604482015260640161081a565b600061135f82346122bc565b9050828660020160008282546113759190612358565b92505081905550816006600082825461138e9190612358565b9250508190555082600760008282546113a79190612358565b909155505033600090815260096020526040812080548492906113cb908490612358565b9091555050336000908152600a6020526040812080548592906113ef908490612358565b909155506114009050600b33611fe0565b508015611411576114113382611ffc565b6040805183815260208101859052889133917f2bdd59583c8e5cc64165e86af2482dbe93e85c98b355b788aa592465b3f6920e910160405180910390a3600854610100900460ff1615801561146a575060025460065410155b156114bc576008805461ff0019166101001790556006546040517f42ef6182c6d744dd081ab962505f40413083376dfcc13e58b60f4f32e9673809916114b39190815260200190565b60405180910390a15b5050505050505050610a0d6001600055565b6114d6611dd7565b60055481106114f75760405162461bcd60e51b815260040161081a90612259565b426005828154811061150b5761150b612290565b90600052602060002090600502016004018190555050565b61152b611e67565b611533611e91565b60085460ff166115555760405162461bcd60e51b815260040161081a906122cf565b600854610100900460ff16156115ad5760405162461bcd60e51b815260206004820152601860248201527f50726573616c653a20736f667443617020726561636865640000000000000000604482015260640161081a565b336000908152600960205260409020548061160a5760405162461bcd60e51b815260206004820152601a60248201527f50726573616c653a206e6f7468696e6720746f20726566756e64000000000000604482015260640161081a565b336000818152600960209081526040808320839055600a9091528120556116319082611ffc565b60405181815233907f4dc30368d5fd343625c506520752ceeebb912396e82ee3dc67a094b18b1326d090602001610bb7565b61166b611dd7565b600081116116b25760405162461bcd60e51b8152602060048201526014602482015273050726573616c653a20736f6674436170203e20360641b604482015260640161081a565b600854610100900460ff161561170a5760405162461bcd60e51b815260206004820181905260248201527f50726573616c653a20736f667443617020616c72656164792072656163686564604482015260640161081a565b600255565b611717611dd7565b6003548110156117695760405162461bcd60e51b815260206004820152601f60248201527f50726573616c653a206d617850657257616c6c6574203e3d206d696e42757900604482015260640161081a565b600455565b611776611dd7565b60055483106117975760405162461bcd60e51b815260040161081a90612259565b8082106117e65760405162461bcd60e51b815260206004820152601b60248201527f50726573616c653a20696e76616c69642070686173652074696d650000000000604482015260640161081a565b6000600584815481106117fb576117fb612290565b906000526020600020906005020190508060030154421061186f5760405162461bcd60e51b815260206004820152602860248201527f50726573616c653a2063616e6e6f7420757064617465206163746976652f7061604482015267737420706861736560c01b606482015260840161081a565b60005b60055481101561193857808514611926576005818154811061189657611896612290565b906000526020600020906005020160040154841015806118da5750600581815481106118c4576118c4612290565b9060005260206000209060050201600301548311155b6119265760405162461bcd60e51b815260206004820152601b60248201527f50726573616c653a206f7665726c617070696e67207068617365730000000000604482015260640161081a565b806119308161233f565b915050611872565b50600381019290925560049091015550565b611952611dd7565b6001600160a01b03811661197c57604051631e4fbdf760e01b81526000600482015260240161081a565b610dfd81611f4b565b600080611990611d21565b5092915050565b61199f611dd7565b600084116119fd5760405162461bcd60e51b815260206004820152602560248201527f50726573616c653a207072696365206d75737420626520677265617465722074604482015264068616e20360dc1b606482015260840161081a565b60008311611a5c5760405162461bcd60e51b815260206004820152602660248201527f50726573616c653a20737570706c79206d75737420626520677265617465722060448201526507468616e20360d41b606482015260840161081a565b808210611aab5760405162461bcd60e51b815260206004820152601b60248201527f50726573616c653a20696e76616c69642070686173652074696d650000000000604482015260640161081a565b428211611b085760405162461bcd60e51b815260206004820152602560248201527f50726573616c653a2073746172742074696d65206d75737420626520696e2066604482015264757475726560d81b606482015260840161081a565b60005b600554811015611bca5760058181548110611b2857611b28612290565b90600052602060002090600502016004015483101580611b6c575060058181548110611b5657611b56612290565b9060005260206000209060050201600301548211155b611bb85760405162461bcd60e51b815260206004820152601b60248201527f50726573616c653a206f7665726c617070696e67207068617365730000000000604482015260640161081a565b80611bc28161233f565b915050611b0b565b506040805160a081018252858152602081018581526000928201838152606083018681526080840186815260058054600180820183559782905295517f036b6384b5eca791c62761152d0c79bb0604c104a5fb6f4eb0703f3154bb3db09682029687015593517f036b6384b5eca791c62761152d0c79bb0604c104a5fb6f4eb0703f3154bb3db186015591517f036b6384b5eca791c62761152d0c79bb0604c104a5fb6f4eb0703f3154bb3db2850155517f036b6384b5eca791c62761152d0c79bb0604c104a5fb6f4eb0703f3154bb3db3840155517f036b6384b5eca791c62761152d0c79bb0604c104a5fb6f4eb0703f3154bb3db49092019190915554611cd391906122bc565b6040805186815260208101869052908101849052606081018390527f1cf74bb9fd475279cd2403c2c7b54ce339a53fccdef5ec40c8128c6f03ba0cb39060800160405180910390a250505050565b60008060005b600554811015611dcc57600060058281548110611d4657611d46612290565b906000526020600020906005020190506000816003015460001480611d6f575081600301544210155b8015611d8b575060048201541580611d8b575081600401544211155b6001830154600284015491925011818015611da35750805b15611db657506001959294509192505050565b5050508080611dc49061233f565b915050611d27565b506000928392509050565b6001546001600160a01b03610100909104163314610a0d5760405163118cdaa760e01b815233600482015260240161081a565b6000611e14825490565b92915050565b611e22612116565b6001805460ff191690557f5db9ee0a495bf2e6ff9c91a7834c1ba4fdd244a5e8aa4e537bd38aeae4b073aa335b6040516001600160a01b0390911681526020016109e2565b600260005403611e8a57604051633ee5aeb560e01b815260040160405180910390fd5b6002600055565b60015460ff1615610a0d5760405163d93c066560e01b815260040160405180910390fd5b80471015611edf5760405163cf47918160e01b81524760048201526024810182905260440161081a565b600080836001600160a01b03168360405160006040518083038185875af1925050503d8060008114611f2d576040519150601f19603f3d011682016040523d82523d6000602084013e611f32565b606091505b509150915081611f4557611f4581612139565b50505050565b600180546001600160a01b03838116610100818102610100600160a81b031985161790945560405193909204169182907f8be0079c531659141344cd1fd0a4f28419497f9722a3daafe3b4186f6b6457e090600090a35050565b611fad611e91565b6001805460ff1916811790557f62e78cea01bee320cd4e420270b5ea74000d11b0c9f74754ebdbfc544b05a25833611e4f565b6000611ff5836001600160a01b038416612161565b9392505050565b6001600160a01b0382166120475760405162461bcd60e51b815260206004820152601260248201527150726573616c653a2064657374207a65726f60701b604482015260640161081a565b6000811161208e5760405162461bcd60e51b8152602060048201526014602482015273141c995cd85b194e881e995c9bc8185b5bdd5b9d60621b604482015260640161081a565b6001600160a01b0382166000908152600d6020526040812080548392906120b6908490612358565b9250508190555080600e60008282546120cf9190612358565b90915550506040518181526001600160a01b038316907fd81593835002f067c3975ffa08b496b05948cd7d326514e017b9eee0683bc3d59060200160405180910390a25050565b60015460ff16610a0d57604051638dfc202b60e01b815260040160405180910390fd5b80511561214857805160208201fd5b60405163d6bda27560e01b815260040160405180910390fd5b60008181526001830160205260408120546121a857508154600181810184556000848152602080822090930184905584548482528286019093526040902091909155611e14565b506000611e14565b6000602082840312156121c257600080fd5b5035919050565b6001600160a01b0381168114610dfd57600080fd5b6000602082840312156121f057600080fd5b8135611ff5816121c9565b60008060006060848603121561221057600080fd5b505081359360208301359350604090920135919050565b6000806000806080858703121561223d57600080fd5b5050823594602084013594506040840135936060013592509050565b60208082526019908201527f50726573616c653a20696e76616c696420706861736520494400000000000000604082015260600190565b634e487b7160e01b600052603260045260246000fd5b634e487b7160e01b600052601160045260246000fd5b81810381811115611e1457611e146122a6565b60208082526017908201527f50726573616c653a2073616c65206e6f7420656e646564000000000000000000604082015260600190565b8082028115828204841417611e1457611e146122a6565b60008261233a57634e487b7160e01b600052601260045260246000fd5b500490565b600060018201612351576123516122a6565b5060010190565b80820180821115611e1457611e146122a656fea2646970667358221220be55a2d16475717874919ac4f6bd2821d8c6859591d6d895ca8c334aca7c29c164736f6c63430008140033",
  "devdoc": {
    "errors": {
      "EnforcedPause()": [
        {
          "details": "The operation failed because the contract is paused."
        }
      ],
      "ExpectedPause()": [
        {
          "details": "The operation failed because the contract is not paused."
        }
      ],
      "FailedCall()": [
        {
          "details": "A call to an address target failed. The target may have reverted."
        }
      ],
      "InsufficientBalance(uint256,uint256)": [
        {
          "details": "The ETH balance of the account is not enough to perform the operation."
        }
      ],
      "OwnableInvalidOwner(address)": [
        {
          "details": "The owner is not a valid owner account. (eg. `address(0)`)"
        }
      ],
      "OwnableUnauthorizedAccount(address)": [
        {
          "details": "The caller account is not authorized to perform an operation."
        }
      ],
      "ReentrancyGuardReentrantCall()": [
        {
          "details": "Unauthorized reentrant call."
        }
      ]
    },
    "events": {
      "Paused(address)": {
        "details": "Emitted when the pause is triggered by `account`."
      },
      "Unpaused(address)": {
        "details": "Emitted when the pause is lifted by `account`."
      }
    },
    "kind": "dev",
    "methods": {
      "owner()": {
        "details": "Returns the address of the current owner."
      },
      "paused()": {
        "details": "Returns true if the contract is paused, and false otherwise."
      },
      "renounceOwnership()": {
        "details": "Leaves the contract without owner. It will not be possible to call `onlyOwner` functions. Can only be called by the current owner. NOTE: Renouncing ownership will leave the contract without an owner, thereby disabling any functionality that is only available to the owner."
      },
      "transferOwnership(address)": {
        "details": "Transfers ownership of the contract to a new account (`newOwner`). Can only be called by the current owner."
      }
    },
    "title": "DynamicPresale - Dynamic Token Presale Contract",
    "version": 1
  },
  "userdoc": {
    "kind": "user",
    "methods": {
      "addPhase(uint256,uint256,uint256,uint256)": {
        "notice": "Add a new phase. Only owner can add."
      },
      "buy()": {
        "notice": "Buy tokens in current phase. Excess ETH will be queued for withdrawal via `withdrawPayments`."
      },
      "calculateTokens(uint256)": {
        "notice": "Calculate tokens + cost + excess if buying `ethAmount` in current phase (safe, non-reverting)"
      },
      "claim()": {
        "notice": "Claim minted tokens after sale ended and soft cap reached"
      },
      "constructor": {
        "notice": "Constructor sets token, decimals and initial sale params NOTE: Ownable requires an initial owner parameter in OZ v5, por eso pasamos msg.sender."
      },
      "endSale()": {
        "notice": "End the sale. Only owner."
      },
      "escrowBalance()": {
        "notice": "Returns the total escrowed ETH reserved for buyer withdrawals"
      },
      "getCurrentPhase()": {
        "notice": "Reverting current phase getter (keeps backward compatibility)"
      },
      "getPhase(uint256)": {
        "notice": "Get phase details"
      },
      "hasActivePhase()": {
        "notice": "Returns whether there is an active phase"
      },
      "pause()": {
        "notice": "Pause the presale (global). Only owner."
      },
      "pausePhase(uint256)": {
        "notice": "Pause a specific phase by setting its end time to now (emergency)"
      },
      "paymentsOf(address)": {
        "notice": "View pending payments for an account"
      },
      "remainingTokensInCurrentPhase()": {
        "notice": "Remaining tokens in current phase (0 if none)"
      },
      "requestRefund()": {
        "notice": "Request refund when sale ended and soft cap not reached"
      },
      "setMaxPerWallet(uint256)": {
        "notice": "Set max per wallet"
      },
      "setMinBuy(uint256)": {
        "notice": "Set min buy"
      },
      "setSoftCap(uint256)": {
        "notice": "Set soft cap (only until reached)"
      },
      "totalBuyers()": {
        "notice": "Number of buyers (addresses) who participated"
      },
      "totalPhases()": {
        "notice": "Total number of configured phases"
      },
      "unpause()": {
        "notice": "Unpause the presale (global). Only owner."
      },
      "updatePhase(uint256,uint256,uint256)": {
        "notice": "Update phase times for a future (not-yet-started) phase"
      },
      "withdrawPayments()": {
        "notice": "Withdraw pending payments (excess/refund). Uses pull-pattern."
      },
      "withdrawProceeds(address)": {
        "notice": "Withdraw proceeds (ETH held in contract) to beneficiary. Only owner and only when softCapReached and saleEnded."
      }
    },
    "notice": "Handles multi-phase presale, buy, claim, refund, and withdraw logic",
    "version": 1
  },
  "storageLayout": {
    "storage": [
      {
        "astId": 3475,
        "contract": "contracts/DynamicPresale.sol:DynamicPresale",
        "label": "_status",
        "offset": 0,
        "slot": "0",
        "type": "t_uint256"
      },
      {
        "astId": 3365,
        "contract": "contracts/DynamicPresale.sol:DynamicPresale",
        "label": "_paused",
        "offset": 0,
        "slot": "1",
        "type": "t_bool"
      },
      {
        "astId": 388,
        "contract": "contracts/DynamicPresale.sol:DynamicPresale",
        "label": "_owner",
        "offset": 1,
        "slot": "1",
        "type": "t_address"
      },
      {
        "astId": 8787,
        "contract": "contracts/DynamicPresale.sol:DynamicPresale",
        "label": "softCap",
        "offset": 0,
        "slot": "2",
        "type": "t_uint256"
      },
      {
        "astId": 8789,
        "contract": "contracts/DynamicPresale.sol:DynamicPresale",
        "label": "minBuy",
        "offset": 0,
        "slot": "3",
        "type": "t_uint256"
      },
      {
        "astId": 8791,
        "contract": "contracts/DynamicPresale.sol:DynamicPresale",
        "label": "maxPerWallet",
        "offset": 0,
        "slot": "4",
        "type": "t_uint256"
      },
      {
        "astId": 8795,
        "contract": "contracts/DynamicPresale.sol:DynamicPresale",
        "label": "phases",
        "offset": 0,
        "slot": "5",
        "type": "t_array(t_struct(Phase)8778_storage)dyn_storage"
      },
      {
        "astId": 8797,
        "contract": "contracts/DynamicPresale.sol:DynamicPresale",
        "label": "totalRaised",
        "offset": 0,
        "slot": "6",
        "type": "t_uint256"
      },
      {
        "astId": 8799,
        "contract": "contracts/DynamicPresale.sol:DynamicPresale",
        "label": "totalTokensSold",
        "offset": 0,
        "slot": "7",
        "type": "t_uint256"
      },
      {
        "astId": 8801,
        "contract": "contracts/DynamicPresale.sol:DynamicPresale",
        "label": "saleEnded",
        "offset": 0,
        "slot": "8",
        "type": "t_bool"
      },
      {
        "astId": 8803,
        "contract": "contracts/DynamicPresale.sol:DynamicPresale",
        "label": "softCapReached",
        "offset": 1,
        "slot": "8",
        "type": "t_bool"
      },
      {
        "astId": 8807,
        "contract": "contracts/DynamicPresale.sol:DynamicPresale",
        "label": "contributionsWei",
        "offset": 0,
        "slot": "9",
        "type": "t_mapping(t_address,t_uint256)"
      },
      {
        "astId": 8811,
        "contract": "contracts/DynamicPresale.sol:DynamicPresale",
        "label": "pendingTokens",
        "offset": 0,
        "slot": "10",
        "type": "t_mapping(t_address,t_uint256)"
      },
      {
        "astId": 8814,
        "contract": "contracts/DynamicPresale.sol:DynamicPresale",
        "label": "buyers",
        "offset": 0,
        "slot": "11",
        "type": "t_struct(AddressSet)7710_storage"
      },
      {
        "astId": 8818,
        "contract": "contracts/DynamicPresale.sol:DynamicPresale",
        "label": "_escrowPayments",
        "offset": 0,
        "slot": "13",
        "type": "t_mapping(t_address,t_uint256)"
      },
      {
        "astId": 8820,
        "contract": "contracts/DynamicPresale.sol:DynamicPresale",
        "label": "totalEscrow",
        "offset": 0,
        "slot": "14",
        "type": "t_uint256"
      }
    ],
    "types": {
      "t_address": {
        "encoding": "inplace",
        "label": "address",
        "numberOfBytes": "20"
      },
      "t_array(t_bytes32)dyn_storage": {
        "base": "t_bytes32",
        "encoding": "dynamic_array",
        "label": "bytes32[]",
        "numberOfBytes": "32"
      },
      "t_array(t_struct(Phase)8778_storage)dyn_storage": {
        "base": "t_struct(Phase)8778_storage",
        "encoding": "dynamic_array",
        "label": "struct DynamicPresale.Phase[]",
        "numberOfBytes": "32"
      },
      "t_bool": {
        "encoding": "inplace",
        "label": "bool",
        "numberOfBytes": "1"
      },
      "t_bytes32": {
        "encoding": "inplace",
        "label": "bytes32",
        "numberOfBytes": "32"
      },
      "t_mapping(t_address,t_uint256)": {
        "encoding": "mapping",
        "key": "t_address",
        "label": "mapping(address => uint256)",
        "numberOfBytes": "32",
        "value": "t_uint256"
      },
      "t_mapping(t_bytes32,t_uint256)": {
        "encoding": "mapping",
        "key": "t_bytes32",
        "label": "mapping(bytes32 => uint256)",
        "numberOfBytes": "32",
        "value": "t_uint256"
      },
      "t_struct(AddressSet)7710_storage": {
        "encoding": "inplace",
        "label": "struct EnumerableSet.AddressSet",
        "members": [
          {
            "astId": 7709,
            "contract": "contracts/DynamicPresale.sol:DynamicPresale",
            "label": "_inner",
            "offset": 0,
            "slot": "0",
            "type": "t_struct(Set)7224_storage"
          }
        ],
        "numberOfBytes": "64"
      },
      "t_struct(Phase)8778_storage": {
        "encoding": "inplace",
        "label": "struct DynamicPresale.Phase",
        "members": [
          {
            "astId": 8769,
            "contract": "contracts/DynamicPresale.sol:DynamicPresale",
            "label": "priceWei",
            "offset": 0,
            "slot": "0",
            "type": "t_uint256"
          },
          {
            "astId": 8771,
            "contract": "contracts/DynamicPresale.sol:DynamicPresale",
            "label": "supply",
            "offset": 0,
            "slot": "1",
            "type": "t_uint256"
          },
          {
            "astId": 8773,
            "contract": "contracts/DynamicPresale.sol:DynamicPresale",
            "label": "sold",
            "offset": 0,
            "slot": "2",
            "type": "t_uint256"
          },
          {
            "astId": 8775,
            "contract": "contracts/DynamicPresale.sol:DynamicPresale",
            "label": "start",
            "offset": 0,
            "slot": "3",
            "type": "t_uint256"
          },
          {
            "astId": 8777,
            "contract": "contracts/DynamicPresale.sol:DynamicPresale",
            "label": "end",
            "offset": 0,
            "slot": "4",
            "type": "t_uint256"
          }
        ],
        "numberOfBytes": "160"
      },
      "t_struct(Set)7224_storage": {
        "encoding": "inplace",
        "label": "struct EnumerableSet.Set",
        "members": [
          {
            "astId": 7219,
            "contract": "contracts/DynamicPresale.sol:DynamicPresale",
            "label": "_values",
            "offset": 0,
            "slot": "0",
            "type": "t_array(t_bytes32)dyn_storage"
          },
          {
            "astId": 7223,
            "contract": "contracts/DynamicPresale.sol:DynamicPresale",
            "label": "_positions",
            "offset": 0,
            "slot": "1",
            "type": "t_mapping(t_bytes32,t_uint256)"
          }
        ],
        "numberOfBytes": "64"
      },
      "t_uint256": {
        "encoding": "inplace",
        "label": "uint256",
        "numberOfBytes": "32"
      }
    }
  }
}