{
  "address": "0xA77f8949fc69e6B510E88AAAB6f5D84Bc1788838",
  "abi": [
    {
      "inputs": [
        {
          "internalType": "address",
          "name": "token_",
          "type": "address"
        }
      ],
      "stateMutability": "nonpayable",
      "type": "constructor"
    },
    {
      "inputs": [],
      "name": "EnforcedPause",
      "type": "error"
    },
    {
      "inputs": [],
      "name": "ExpectedPause",
      "type": "error"
    },
    {
      "inputs": [
        {
          "internalType": "address",
          "name": "owner",
          "type": "address"
        }
      ],
      "name": "OwnableInvalidOwner",
      "type": "error"
    },
    {
      "inputs": [
        {
          "internalType": "address",
          "name": "account",
          "type": "address"
        }
      ],
      "name": "OwnableUnauthorizedAccount",
      "type": "error"
    },
    {
      "inputs": [],
      "name": "ReentrancyGuardReentrantCall",
      "type": "error"
    },
    {
      "inputs": [
        {
          "internalType": "address",
          "name": "token",
          "type": "address"
        }
      ],
      "name": "SafeERC20FailedOperation",
      "type": "error"
    },
    {
      "anonymous": false,
      "inputs": [
        {
          "indexed": true,
          "internalType": "address",
          "name": "previousOwner",
          "type": "address"
        },
        {
          "indexed": true,
          "internalType": "address",
          "name": "newOwner",
          "type": "address"
        }
      ],
      "name": "OwnershipTransferred",
      "type": "event"
    },
    {
      "anonymous": false,
      "inputs": [
        {
          "indexed": false,
          "internalType": "address",
          "name": "account",
          "type": "address"
        }
      ],
      "name": "Paused",
      "type": "event"
    },
    {
      "anonymous": false,
      "inputs": [
        {
          "indexed": true,
          "internalType": "address",
          "name": "beneficiary",
          "type": "address"
        },
        {
          "indexed": true,
          "internalType": "uint256",
          "name": "scheduleId",
          "type": "uint256"
        },
        {
          "indexed": false,
          "internalType": "uint256",
          "name": "amount",
          "type": "uint256"
        }
      ],
      "name": "TokensReleased",
      "type": "event"
    },
    {
      "anonymous": false,
      "inputs": [
        {
          "indexed": false,
          "internalType": "address",
          "name": "account",
          "type": "address"
        }
      ],
      "name": "Unpaused",
      "type": "event"
    },
    {
      "anonymous": false,
      "inputs": [
        {
          "indexed": true,
          "internalType": "address",
          "name": "beneficiary",
          "type": "address"
        },
        {
          "indexed": true,
          "internalType": "uint256",
          "name": "scheduleId",
          "type": "uint256"
        },
        {
          "indexed": false,
          "internalType": "uint256",
          "name": "totalAmount",
          "type": "uint256"
        },
        {
          "indexed": false,
          "internalType": "uint256",
          "name": "start",
          "type": "uint256"
        },
        {
          "indexed": false,
          "internalType": "uint256",
          "name": "duration",
          "type": "uint256"
        },
        {
          "indexed": false,
          "internalType": "uint256",
          "name": "cliff",
          "type": "uint256"
        },
        {
          "indexed": false,
          "internalType": "bool",
          "name": "revocable",
          "type": "bool"
        }
      ],
      "name": "VestingCreated",
      "type": "event"
    },
    {
      "anonymous": false,
      "inputs": [
        {
          "indexed": true,
          "internalType": "address",
          "name": "beneficiary",
          "type": "address"
        },
        {
          "indexed": true,
          "internalType": "uint256",
          "name": "scheduleId",
          "type": "uint256"
        },
        {
          "indexed": false,
          "internalType": "uint256",
          "name": "unvestedAmount",
          "type": "uint256"
        }
      ],
      "name": "VestingRevoked",
      "type": "event"
    },
    {
      "inputs": [
        {
          "internalType": "address",
          "name": "beneficiary",
          "type": "address"
        },
        {
          "internalType": "uint256",
          "name": "totalAmount",
          "type": "uint256"
        },
        {
          "internalType": "uint256",
          "name": "start",
          "type": "uint256"
        },
        {
          "internalType": "uint256",
          "name": "duration",
          "type": "uint256"
        },
        {
          "internalType": "uint256",
          "name": "cliff",
          "type": "uint256"
        },
        {
          "internalType": "bool",
          "name": "revocable",
          "type": "bool"
        }
      ],
      "name": "createVesting",
      "outputs": [],
      "stateMutability": "nonpayable",
      "type": "function"
    },
    {
      "inputs": [
        {
          "internalType": "uint256",
          "name": "amount",
          "type": "uint256"
        }
      ],
      "name": "emergencyWithdraw",
      "outputs": [],
      "stateMutability": "nonpayable",
      "type": "function"
    },
    {
      "inputs": [
        {
          "internalType": "address",
          "name": "beneficiary",
          "type": "address"
        },
        {
          "internalType": "uint256",
          "name": "scheduleId",
          "type": "uint256"
        }
      ],
      "name": "getReleasableAmount",
      "outputs": [
        {
          "internalType": "uint256",
          "name": "",
          "type": "uint256"
        }
      ],
      "stateMutability": "view",
      "type": "function"
    },
    {
      "inputs": [
        {
          "internalType": "address",
          "name": "beneficiary",
          "type": "address"
        },
        {
          "internalType": "uint256",
          "name": "scheduleId",
          "type": "uint256"
        }
      ],
      "name": "getSchedule",
      "outputs": [
        {
          "components": [
            {
              "internalType": "uint256",
              "name": "totalAmount",
              "type": "uint256"
            },
            {
              "internalType": "uint256",
              "name": "released",
              "type": "uint256"
            },
            {
              "internalType": "uint256",
              "name": "start",
              "type": "uint256"
            },
            {
              "internalType": "uint256",
              "name": "duration",
              "type": "uint256"
            },
            {
              "internalType": "uint256",
              "name": "cliff",
              "type": "uint256"
            },
            {
              "internalType": "bool",
              "name": "revocable",
              "type": "bool"
            },
            {
              "internalType": "bool",
              "name": "revoked",
              "type": "bool"
            }
          ],
          "internalType": "struct TokenVesting.VestingSchedule",
          "name": "",
          "type": "tuple"
        }
      ],
      "stateMutability": "view",
      "type": "function"
    },
    {
      "inputs": [
        {
          "internalType": "address",
          "name": "beneficiary",
          "type": "address"
        }
      ],
      "name": "getScheduleCount",
      "outputs": [
        {
          "internalType": "uint256",
          "name": "",
          "type": "uint256"
        }
      ],
      "stateMutability": "view",
      "type": "function"
    },
    {
      "inputs": [],
      "name": "getTotalCommitted",
      "outputs": [
        {
          "internalType": "uint256",
          "name": "",
          "type": "uint256"
        }
      ],
      "stateMutability": "view",
      "type": "function"
    },
    {
      "inputs": [
        {
          "internalType": "address",
          "name": "beneficiary",
          "type": "address"
        }
      ],
      "name": "getTotalReleasableAmount",
      "outputs": [
        {
          "internalType": "uint256",
          "name": "",
          "type": "uint256"
        }
      ],
      "stateMutability": "view",
      "type": "function"
    },
    {
      "inputs": [
        {
          "internalType": "address",
          "name": "beneficiary",
          "type": "address"
        },
        {
          "internalType": "uint256",
          "name": "scheduleId",
          "type": "uint256"
        }
      ],
      "name": "getVestedAmount",
      "outputs": [
        {
          "internalType": "uint256",
          "name": "",
          "type": "uint256"
        }
      ],
      "stateMutability": "view",
      "type": "function"
    },
    {
      "inputs": [],
      "name": "owner",
      "outputs": [
        {
          "internalType": "address",
          "name": "",
          "type": "address"
        }
      ],
      "stateMutability": "view",
      "type": "function"
    },
    {
      "inputs": [],
      "name": "pause",
      "outputs": [],
      "stateMutability": "nonpayable",
      "type": "function"
    },
    {
      "inputs": [],
      "name": "paused",
      "outputs": [
        {
          "internalType": "bool",
          "name": "",
          "type": "bool"
        }
      ],
      "stateMutability": "view",
      "type": "function"
    },
    {
      "inputs": [],
      "name": "release",
      "outputs": [],
      "stateMutability": "nonpayable",
      "type": "function"
    },
    {
      "inputs": [
        {
          "internalType": "uint256",
          "name": "scheduleId",
          "type": "uint256"
        }
      ],
      "name": "releaseSchedule",
      "outputs": [],
      "stateMutability": "nonpayable",
      "type": "function"
    },
    {
      "inputs": [],
      "name": "renounceOwnership",
      "outputs": [],
      "stateMutability": "nonpayable",
      "type": "function"
    },
    {
      "inputs": [
        {
          "internalType": "address",
          "name": "beneficiary",
          "type": "address"
        },
        {
          "internalType": "uint256",
          "name": "scheduleId",
          "type": "uint256"
        }
      ],
      "name": "revokeVesting",
      "outputs": [],
      "stateMutability": "nonpayable",
      "type": "function"
    },
    {
      "inputs": [],
      "name": "token",
      "outputs": [
        {
          "internalType": "contract IERC20",
          "name": "",
          "type": "address"
        }
      ],
      "stateMutability": "view",
      "type": "function"
    },
    {
      "inputs": [],
      "name": "totalCommitted",
      "outputs": [
        {
          "internalType": "uint256",
          "name": "",
          "type": "uint256"
        }
      ],
      "stateMutability": "view",
      "type": "function"
    },
    {
      "inputs": [
        {
          "internalType": "address",
          "name": "",
          "type": "address"
        }
      ],
      "name": "totalVestedAmount",
      "outputs": [
        {
          "internalType": "uint256",
          "name": "",
          "type": "uint256"
        }
      ],
      "stateMutability": "view",
      "type": "function"
    },
    {
      "inputs": [],
      "name": "totalVestingSchedules",
      "outputs": [
        {
          "internalType": "uint256",
          "name": "",
          "type": "uint256"
        }
      ],
      "stateMutability": "view",
      "type": "function"
    },
    {
      "inputs": [
        {
          "internalType": "address",
          "name": "newOwner",
          "type": "address"
        }
      ],
      "name": "transferOwnership",
      "outputs": [],
      "stateMutability": "nonpayable",
      "type": "function"
    },
    {
      "inputs": [],
      "name": "unpause",
      "outputs": [],
      "stateMutability": "nonpayable",
      "type": "function"
    }
  ],
  "transactionHash": "0x5405b2f0aff3fcad07c20c384d29f8db439b56f6f786c2cc9ce48ce0a733296d",
  "args": [
    "0x554246113d00Fc80bA8457eeD065DC33C92f5331"
  ],
  "numDeployments": 1,
  "solcInputHash": "f85e7ee61c3aad30cef04e9597fd913b",
  "bytecode": "0x60a06040523480156200001157600080fd5b5060405162001bab38038062001bab833981016040819052620000349162000126565b33806200005c57604051631e4fbdf760e01b8152600060048201526024015b60405180910390fd5b6200006781620000d6565b50600180556001600160a01b038116620000c45760405162461bcd60e51b815260206004820152601b60248201527f56657374696e673a20746f6b656e2061646472657373207a65726f0000000000604482015260640162000053565b6001600160a01b031660805262000158565b600080546001600160a01b038381166001600160a01b0319831681178455604051919092169283917f8be0079c531659141344cd1fd0a4f28419497f9722a3daafe3b4186f6b6457e09190a35050565b6000602082840312156200013957600080fd5b81516001600160a01b03811681146200015157600080fd5b9392505050565b608051611a14620001976000396000818161031901528181610505015281816108790152818161095a01528181610d0701526110fb0152611a146000f3fe608060405234801561001057600080fd5b50600436106101375760003560e01c80637264c4da116100b8578063dc6c6bac1161007c578063dc6c6bac146102bf578063e4695d14146102c8578063eb9c8a1a146102db578063f2fde38b146102ee578063fa6799f214610301578063fc0c546a1461031457600080fd5b80637264c4da1461020a5780638456cb591461027757806386d1a69f1461027f5780638da5cb5b14610287578063a1228f8b146102ac57600080fd5b80634094460a116100ff5780634094460a146101a65780635120bcf2146101b95780635312ea8e146101d95780635c975abb146101ec578063715018a61461020257600080fd5b806307433ca41461013c5780631d3231d414610151578063240894aa1461016d578063307e093f146101965780633f4ba83a1461019e575b600080fd5b61014f61014a36600461182b565b61033b565b005b61015a60045481565b6040519081526020015b60405180910390f35b61015a61017b36600461188c565b6001600160a01b031660009081526005602052604090205490565b60045461015a565b61014f61076c565b61015a6101b43660046118a7565b61077e565b61015a6101c736600461188c565b60066020526000908152604090205481565b61014f6101e73660046118d1565b61085c565b60025460ff166040519015158152602001610164565b61014f610984565b61021d6102183660046118a7565b610996565b6040516101649190600060e082019050825182526020830151602083015260408301516040830152606083015160608301526080830151608083015260a0830151151560a083015260c0830151151560c083015292915050565b61014f610aad565b61014f610abd565b6000546001600160a01b03165b6040516001600160a01b039091168152602001610164565b61015a6102ba36600461188c565b610d39565b61015a60035481565b61014f6102d63660046118d1565b610eca565b61015a6102e93660046118a7565b611166565b61014f6102fc36600461188c565b61127a565b61014f61030f3660046118a7565b6112b5565b6102947f000000000000000000000000000000000000000000000000000000000000000081565b610343611556565b61034b611583565b6001600160a01b0386166103a65760405162461bcd60e51b815260206004820152601960248201527f56657374696e673a2062656e6566696369617279207a65726f0000000000000060448201526064015b60405180910390fd5b600085116103ed5760405162461bcd60e51b815260206004820152601460248201527315995cdd1a5b99ce881e995c9bc8185b5bdd5b9d60621b604482015260640161039d565b600083116104365760405162461bcd60e51b81526020600482015260166024820152752b32b9ba34b7339d103d32b93790323ab930ba34b7b760511b604482015260640161039d565b828211156104925760405162461bcd60e51b8152602060048201526024808201527f56657374696e673a20636c6966662067726561746572207468616e20647572616044820152633a34b7b760e11b606482015260840161039d565b428410156104e25760405162461bcd60e51b815260206004820152601b60248201527f56657374696e673a2073746172742074696d6520696e20706173740000000000604482015260640161039d565b846004546104f09190611900565b6040516370a0823160e01b81523060048201527f00000000000000000000000000000000000000000000000000000000000000006001600160a01b0316906370a0823190602401602060405180830381865afa158015610554573d6000803e3d6000fd5b505050506040513d601f19601f820116820180604052508101906105789190611913565b10156105e25760405162461bcd60e51b815260206004820152603360248201527f56657374696e673a20696e73756666696369656e7420746f6b656e2062616c616044820152726e636520666f72206e65772076657374696e6760681b606482015260840161039d565b6001600160a01b0386166000818152600560208181526040808420815160e0810183528b81528084018681528184018c8152606083018c8152608084018c81528b151560a0860190815260c086018b8152875460018181018a55988d528a8d2097516006918202909801978855955197870197909755925160028601559051600385015551600484015551919095018054925115156101000261ff00199215159290921661ffff19909316929092171790559383525290812080548792906106ab908490611900565b9250508190555084600460008282546106c49190611900565b9091555050600380549060006106d98361192c565b90915550506001600160a01b03861660009081526005602052604081205461070390600190611945565b604080518881526020810188905290810186905260608101859052831515608082015290915081906001600160a01b038916907f09825bbd7425cf79ba1541c374c2ceef62f92603e0261d25cedd9648097446029060a00160405180910390a350505050505050565b610774611556565b61077c6115a7565b565b6001600160a01b03821660009081526005602052604081205482106107b55760405162461bcd60e51b815260040161039d90611958565b6001600160a01b038316600090815260056020526040902080546108539190849081106107e4576107e461198f565b60009182526020918290206040805160e081018252600690930290910180548352600181015493830193909352600283015490820152600382015460608201526004820154608082015260059091015460ff808216151560a084015261010090910416151560c08201526115f9565b90505b92915050565b610864611556565b6040516370a0823160e01b81523060048201527f00000000000000000000000000000000000000000000000000000000000000006001600160a01b0316906370a0823190602401602060405180830381865afa1580156108c8573d6000803e3d6000fd5b505050506040513d601f19601f820116820180604052508101906108ec9190611913565b81111561093b5760405162461bcd60e51b815260206004820152601d60248201527f56657374696e673a20696e73756666696369656e742062616c616e6365000000604482015260640161039d565b6109816109506000546001600160a01b031690565b6001600160a01b037f000000000000000000000000000000000000000000000000000000000000000016908361166c565b50565b61098c611556565b61077c60006116c3565b6109da6040518060e0016040528060008152602001600081526020016000815260200160008152602001600081526020016000151581526020016000151581525090565b6001600160a01b0383166000908152600560205260409020548210610a115760405162461bcd60e51b815260040161039d90611958565b6001600160a01b0383166000908152600560205260409020805483908110610a3b57610a3b61198f565b60009182526020918290206040805160e081018252600690930290910180548352600181015493830193909352600283015490820152600382015460608201526004820154608082015260059091015460ff808216151560a084015261010090910416151560c0820152905092915050565b610ab5611556565b61077c611713565b610ac5611750565b610acd611583565b336000908152600560205260408120815b8154811015610ca9576000828281548110610afb57610afb61198f565b906000526020600020906006020190508060050160019054906101000a900460ff1615610b285750610c97565b6040805160e08101825282548152600183015460208201526002830154918101919091526003820154606082015260048201546080820152600582015460ff808216151560a084015261010090910416151560c0820152600090610b8b906115f9565b905060008260010154821115610bb1576001830154610baa9083611945565b9050610bb9565b505050610c97565b80836001016000828254610bcd9190611900565b90915550610bdd90508187611900565b95508060045410610c05578060046000828254610bfa9190611945565b90915550610c0b9050565b60006004555b336000908152600660205260409020548111610c4b573360009081526006602052604081208054839290610c40908490611945565b90915550610c5c9050565b336000908152600660205260408120555b604051818152849033907fc5c52c2a9175470464d5ea4429889e7df2ea88630a3d32f4d0d3d2d4486562109060200160405180910390a35050505b80610ca18161192c565b915050610ade565b5060008211610cfa5760405162461bcd60e51b815260206004820152601b60248201527f56657374696e673a206e6f7468696e6720746f2072656c656173650000000000604482015260640161039d565b610d2e6001600160a01b037f000000000000000000000000000000000000000000000000000000000000000016338461166c565b505061077c60018055565b6001600160a01b0381166000908152600560209081526040808320805482518185028101850190935280835284938493929190849084015b82821015610dee5760008481526020908190206040805160e08101825260068602909201805483526001808201548486015260028201549284019290925260038101546060840152600481015460808401526005015460ff808216151560a085015261010090910416151560c08301529083529092019101610d71565b50505050905060005b8151811015610ec157818181518110610e1257610e1261198f565b602002602001015160c00151610eaf576000610e46838381518110610e3957610e3961198f565b60200260200101516115f9565b90506000838381518110610e5c57610e5c61198f565b6020026020010151602001518211610e75576000610e9e565b838381518110610e8757610e8761198f565b60200260200101516020015182610e9e9190611945565b9050610eaa8186611900565b945050505b80610eb98161192c565b915050610df7565b50909392505050565b610ed2611750565b610eda611583565b33600090815260056020526040902080548210610f095760405162461bcd60e51b815260040161039d90611958565b6000818381548110610f1d57610f1d61198f565b906000526020600020906006020190508060050160019054906101000a900460ff1615610f8c5760405162461bcd60e51b815260206004820152601960248201527f56657374696e673a207363686564756c65207265766f6b656400000000000000604482015260640161039d565b6040805160e08101825282548152600183015460208201526002830154918101919091526003820154606082015260048201546080820152600582015460ff808216151560a084015261010090910416151560c0820152600090610fef906115f9565b9050816001015481116110445760405162461bcd60e51b815260206004820152601b60248201527f56657374696e673a206e6f7468696e6720746f2072656c656173650000000000604482015260640161039d565b60008260010154826110569190611945565b90508083600101600082825461106c9190611900565b9091555050600454811161109757806004600082825461108c9190611945565b9091555061109d9050565b60006004555b3360009081526006602052604090205481116110dd5733600090815260066020526040812080548392906110d2908490611945565b909155506110ee9050565b336000908152600660205260408120555b6111226001600160a01b037f000000000000000000000000000000000000000000000000000000000000000016338361166c565b604051818152859033907fc5c52c2a9175470464d5ea4429889e7df2ea88630a3d32f4d0d3d2d4486562109060200160405180910390a35050505061098160018055565b6001600160a01b038216600090815260056020526040812054821061119d5760405162461bcd60e51b815260040161039d90611958565b6001600160a01b03831660009081526005602052604081208054849081106111c7576111c761198f565b60009182526020918290206040805160e081018252600690930290910180548352600181015493830193909352600283015490820152600382015460608201526004820154608082015260059091015460ff808216151560a08401526101009091041615801560c0830152909150611243576000915050610856565b600061124e826115f9565b905081602001518111611262576000611271565b60208201516112719082611945565b95945050505050565b611282611556565b6001600160a01b0381166112ac57604051631e4fbdf760e01b81526000600482015260240161039d565b610981816116c3565b6112bd611556565b6001600160a01b0382166000908152600560205260409020805482106112f55760405162461bcd60e51b815260040161039d90611958565b60008183815481106113095761130961198f565b60009182526020909120600690910201600581015490915060ff166113695760405162461bcd60e51b815260206004820152601660248201527556657374696e673a206e6f74207265766f6361626c6560501b604482015260640161039d565b6005810154610100900460ff16156113c35760405162461bcd60e51b815260206004820152601860248201527f56657374696e673a20616c7265616479207265766f6b65640000000000000000604482015260640161039d565b6040805160e08101825282548152600183015460208201526002830154918101919091526003820154606082015260048201546080820152600582015460ff808216151560a084015261010090910416151560c0820152600090611426906115f9565b905060008183600001541115611446578254611443908390611945565b90505b60058301805461ff001916610100179055600454811161147d5780600460008282546114729190611945565b909155506114839050565b60006004555b6001600160a01b03861660009081526006602052604090205481116114d5576001600160a01b038616600090815260066020526040812080548392906114ca908490611945565b909155506114ef9050565b6001600160a01b0386166000908152600660205260408120555b801561150a5761150a6109506000546001600160a01b031690565b84866001600160a01b03167febe4c59724de32494ac2dc26d066e582e9737a6abe9f796bfb8a43f9fde516f78360405161154691815260200190565b60405180910390a3505050505050565b6000546001600160a01b0316331461077c5760405163118cdaa760e01b815233600482015260240161039d565b60025460ff161561077c5760405163d93c066560e01b815260040160405180910390fd5b6115af61177a565b6002805460ff191690557f5db9ee0a495bf2e6ff9c91a7834c1ba4fdd244a5e8aa4e537bd38aeae4b073aa335b6040516001600160a01b03909116815260200160405180910390a1565b60008160800151826040015161160f9190611900565b42101561161e57506000919050565b816060015182604001516116329190611900565b421061163d57505190565b606082015160408301516116519042611945565b835161165d91906119a5565b61085691906119bc565b919050565b604080516001600160a01b038416602482015260448082018490528251808303909101815260649091019091526020810180516001600160e01b031663a9059cbb60e01b1790526116be90849061179d565b505050565b600080546001600160a01b038381166001600160a01b0319831681178455604051919092169283917f8be0079c531659141344cd1fd0a4f28419497f9722a3daafe3b4186f6b6457e09190a35050565b61171b611583565b6002805460ff191660011790557f62e78cea01bee320cd4e420270b5ea74000d11b0c9f74754ebdbfc544b05a2586115dc3390565b60026001540361177357604051633ee5aeb560e01b815260040160405180910390fd5b6002600155565b60025460ff1661077c57604051638dfc202b60e01b815260040160405180910390fd5b600080602060008451602086016000885af1806117c0576040513d6000823e3d81fd5b50506000513d915081156117d85780600114156117e5565b6001600160a01b0384163b155b1561180e57604051635274afe760e01b81526001600160a01b038516600482015260240161039d565b50505050565b80356001600160a01b038116811461166757600080fd5b60008060008060008060c0878903121561184457600080fd5b61184d87611814565b95506020870135945060408701359350606087013592506080870135915060a0870135801515811461187e57600080fd5b809150509295509295509295565b60006020828403121561189e57600080fd5b61085382611814565b600080604083850312156118ba57600080fd5b6118c383611814565b946020939093013593505050565b6000602082840312156118e357600080fd5b5035919050565b634e487b7160e01b600052601160045260246000fd5b80820180821115610856576108566118ea565b60006020828403121561192557600080fd5b5051919050565b60006001820161193e5761193e6118ea565b5060010190565b81810381811115610856576108566118ea565b6020808252601c908201527f56657374696e673a20696e76616c6964207363686564756c6520494400000000604082015260600190565b634e487b7160e01b600052603260045260246000fd5b8082028115828204841417610856576108566118ea565b6000826119d957634e487b7160e01b600052601260045260246000fd5b50049056fea2646970667358221220ee605f5c911fc65997855f74600e4e07ecc357bf3885295ef94f68a01a3e6fc964736f6c63430008140033",
  "devdoc": {
    "details": "Supports multiple schedules per beneficiary, revocable vesting, and emergency functions",
    "errors": {
      "EnforcedPause()": [
        {
          "details": "The operation failed because the contract is paused."
        }
      ],
      "ExpectedPause()": [
        {
          "details": "The operation failed because the contract is not paused."
        }
      ],
      "OwnableInvalidOwner(address)": [
        {
          "details": "The owner is not a valid owner account. (eg. `address(0)`)"
        }
      ],
      "OwnableUnauthorizedAccount(address)": [
        {
          "details": "The caller account is not authorized to perform an operation."
        }
      ],
      "ReentrancyGuardReentrantCall()": [
        {
          "details": "Unauthorized reentrant call."
        }
      ],
      "SafeERC20FailedOperation(address)": [
        {
          "details": "An operation with an ERC-20 token failed."
        }
      ]
    },
    "events": {
      "Paused(address)": {
        "details": "Emitted when the pause is triggered by `account`."
      },
      "Unpaused(address)": {
        "details": "Emitted when the pause is lifted by `account`."
      }
    },
    "kind": "dev",
    "methods": {
      "constructor": {
        "params": {
          "token_": "ERC20 token used for vesting"
        }
      },
      "createVesting(address,uint256,uint256,uint256,uint256,bool)": {
        "params": {
          "beneficiary": "Address of the beneficiary",
          "cliff": "Cliff period in seconds (<= duration)",
          "duration": "Duration of vesting in seconds (> 0)",
          "revocable": "Whether the vesting can be revoked by owner",
          "start": "Start timestamp of vesting (>= now)",
          "totalAmount": "Total amount of tokens to vest (in token units)"
        }
      },
      "emergencyWithdraw(uint256)": {
        "params": {
          "amount": "Amount to withdraw"
        }
      },
      "getReleasableAmount(address,uint256)": {
        "params": {
          "beneficiary": "Address of beneficiary",
          "scheduleId": "Index of schedule"
        }
      },
      "getSchedule(address,uint256)": {
        "params": {
          "beneficiary": "Address of beneficiary",
          "scheduleId": "Index of schedule"
        }
      },
      "getScheduleCount(address)": {
        "params": {
          "beneficiary": "Address to check"
        }
      },
      "getTotalReleasableAmount(address)": {
        "params": {
          "beneficiary": "Address to check"
        }
      },
      "getVestedAmount(address,uint256)": {
        "params": {
          "beneficiary": "Address of beneficiary",
          "scheduleId": "Index of schedule"
        }
      },
      "owner()": {
        "details": "Returns the address of the current owner."
      },
      "paused()": {
        "details": "Returns true if the contract is paused, and false otherwise."
      },
      "releaseSchedule(uint256)": {
        "params": {
          "scheduleId": "Index of the schedule to release"
        }
      },
      "renounceOwnership()": {
        "details": "Leaves the contract without owner. It will not be possible to call `onlyOwner` functions. Can only be called by the current owner. NOTE: Renouncing ownership will leave the contract without an owner, thereby disabling any functionality that is only available to the owner."
      },
      "revokeVesting(address,uint256)": {
        "params": {
          "beneficiary": "Address of beneficiary",
          "scheduleId": "Index of schedule to revoke"
        }
      },
      "transferOwnership(address)": {
        "details": "Transfers ownership of the contract to a new account (`newOwner`). Can only be called by the current owner."
      }
    },
    "title": "TokenVesting - Professional linear vesting contract for Dynamic Presale",
    "version": 1
  },
  "userdoc": {
    "kind": "user",
    "methods": {
      "constructor": {
        "notice": "Constructor"
      },
      "createVesting(address,uint256,uint256,uint256,uint256,bool)": {
        "notice": "Create vesting schedule for beneficiary. Only owner."
      },
      "emergencyWithdraw(uint256)": {
        "notice": "Emergency withdraw tokens. Only owner."
      },
      "getReleasableAmount(address,uint256)": {
        "notice": "Get releasable amount for a specific schedule"
      },
      "getSchedule(address,uint256)": {
        "notice": "Get schedule details"
      },
      "getScheduleCount(address)": {
        "notice": "Get number of schedules for a beneficiary"
      },
      "getTotalCommitted()": {
        "notice": "Get total committed tokens across all vesting schedules (not yet distributed)"
      },
      "getTotalReleasableAmount(address)": {
        "notice": "Get total releasable amount for all schedules of a beneficiary"
      },
      "getVestedAmount(address,uint256)": {
        "notice": "Get vested amount for a specific schedule"
      },
      "pause()": {
        "notice": "Pause vesting operations. Only owner."
      },
      "release()": {
        "notice": "Release vested tokens for all schedules of the caller"
      },
      "releaseSchedule(uint256)": {
        "notice": "Release vested tokens for a specific schedule"
      },
      "revokeVesting(address,uint256)": {
        "notice": "Revoke vesting schedule. Only owner and only if revocable."
      },
      "unpause()": {
        "notice": "Unpause vesting operations. Only owner."
      }
    },
    "notice": "Allows beneficiaries to release vested tokens according to schedule with cliff period",
    "version": 1
  },
  "storageLayout": {
    "storage": [
      {
        "astId": 8,
        "contract": "contracts/TokenVesting.sol:TokenVesting",
        "label": "_owner",
        "offset": 0,
        "slot": "0",
        "type": "t_address"
      },
      {
        "astId": 2272,
        "contract": "contracts/TokenVesting.sol:TokenVesting",
        "label": "_status",
        "offset": 0,
        "slot": "1",
        "type": "t_uint256"
      },
      {
        "astId": 2162,
        "contract": "contracts/TokenVesting.sol:TokenVesting",
        "label": "_paused",
        "offset": 0,
        "slot": "2",
        "type": "t_bool"
      },
      {
        "astId": 8807,
        "contract": "contracts/TokenVesting.sol:TokenVesting",
        "label": "totalVestingSchedules",
        "offset": 0,
        "slot": "3",
        "type": "t_uint256"
      },
      {
        "astId": 8809,
        "contract": "contracts/TokenVesting.sol:TokenVesting",
        "label": "totalCommitted",
        "offset": 0,
        "slot": "4",
        "type": "t_uint256"
      },
      {
        "astId": 8815,
        "contract": "contracts/TokenVesting.sol:TokenVesting",
        "label": "schedules",
        "offset": 0,
        "slot": "5",
        "type": "t_mapping(t_address,t_array(t_struct(VestingSchedule)8802_storage)dyn_storage)"
      },
      {
        "astId": 8819,
        "contract": "contracts/TokenVesting.sol:TokenVesting",
        "label": "totalVestedAmount",
        "offset": 0,
        "slot": "6",
        "type": "t_mapping(t_address,t_uint256)"
      }
    ],
    "types": {
      "t_address": {
        "encoding": "inplace",
        "label": "address",
        "numberOfBytes": "20"
      },
      "t_array(t_struct(VestingSchedule)8802_storage)dyn_storage": {
        "base": "t_struct(VestingSchedule)8802_storage",
        "encoding": "dynamic_array",
        "label": "struct TokenVesting.VestingSchedule[]",
        "numberOfBytes": "32"
      },
      "t_bool": {
        "encoding": "inplace",
        "label": "bool",
        "numberOfBytes": "1"
      },
      "t_mapping(t_address,t_array(t_struct(VestingSchedule)8802_storage)dyn_storage)": {
        "encoding": "mapping",
        "key": "t_address",
        "label": "mapping(address => struct TokenVesting.VestingSchedule[])",
        "numberOfBytes": "32",
        "value": "t_array(t_struct(VestingSchedule)8802_storage)dyn_storage"
      },
      "t_mapping(t_address,t_uint256)": {
        "encoding": "mapping",
        "key": "t_address",
        "label": "mapping(address => uint256)",
        "numberOfBytes": "32",
        "value": "t_uint256"
      },
      "t_struct(VestingSchedule)8802_storage": {
        "encoding": "inplace",
        "label": "struct TokenVesting.VestingSchedule",
        "members": [
          {
            "astId": 8789,
            "contract": "contracts/TokenVesting.sol:TokenVesting",
            "label": "totalAmount",
            "offset": 0,
            "slot": "0",
            "type": "t_uint256"
          },
          {
            "astId": 8791,
            "contract": "contracts/TokenVesting.sol:TokenVesting",
            "label": "released",
            "offset": 0,
            "slot": "1",
            "type": "t_uint256"
          },
          {
            "astId": 8793,
            "contract": "contracts/TokenVesting.sol:TokenVesting",
            "label": "start",
            "offset": 0,
            "slot": "2",
            "type": "t_uint256"
          },
          {
            "astId": 8795,
            "contract": "contracts/TokenVesting.sol:TokenVesting",
            "label": "duration",
            "offset": 0,
            "slot": "3",
            "type": "t_uint256"
          },
          {
            "astId": 8797,
            "contract": "contracts/TokenVesting.sol:TokenVesting",
            "label": "cliff",
            "offset": 0,
            "slot": "4",
            "type": "t_uint256"
          },
          {
            "astId": 8799,
            "contract": "contracts/TokenVesting.sol:TokenVesting",
            "label": "revocable",
            "offset": 0,
            "slot": "5",
            "type": "t_bool"
          },
          {
            "astId": 8801,
            "contract": "contracts/TokenVesting.sol:TokenVesting",
            "label": "revoked",
            "offset": 1,
            "slot": "5",
            "type": "t_bool"
          }
        ],
        "numberOfBytes": "192"
      },
      "t_uint256": {
        "encoding": "inplace",
        "label": "uint256",
        "numberOfBytes": "32"
      }
    }
  }
}